{
  "contractName": "Members",
  "abi": [
    {
      "constant": true,
      "inputs": [],
      "name": "coin",
      "outputs": [
        {
          "name": "",
          "type": "address"
        }
      ],
      "payable": false,
      "stateMutability": "view",
      "type": "function"
    },
    {
      "constant": true,
      "inputs": [
        {
          "name": "_member",
          "type": "address"
        }
      ],
      "name": "getCashbackRate",
      "outputs": [
        {
          "name": "rate",
          "type": "int8"
        }
      ],
      "payable": false,
      "stateMutability": "view",
      "type": "function"
    },
    {
      "constant": true,
      "inputs": [
        {
          "name": "",
          "type": "uint256"
        }
      ],
      "name": "status",
      "outputs": [
        {
          "name": "name",
          "type": "string"
        },
        {
          "name": "times",
          "type": "uint256"
        },
        {
          "name": "sum",
          "type": "uint256"
        },
        {
          "name": "rate",
          "type": "int8"
        }
      ],
      "payable": false,
      "stateMutability": "view",
      "type": "function"
    },
    {
      "constant": false,
      "inputs": [
        {
          "name": "_member",
          "type": "address"
        },
        {
          "name": "_value",
          "type": "uint256"
        }
      ],
      "name": "updateHistory",
      "outputs": [],
      "payable": false,
      "stateMutability": "nonpayable",
      "type": "function"
    },
    {
      "constant": false,
      "inputs": [
        {
          "name": "_addr",
          "type": "address"
        }
      ],
      "name": "setCoin",
      "outputs": [],
      "payable": false,
      "stateMutability": "nonpayable",
      "type": "function"
    },
    {
      "constant": true,
      "inputs": [],
      "name": "owner",
      "outputs": [
        {
          "name": "",
          "type": "address"
        }
      ],
      "payable": false,
      "stateMutability": "view",
      "type": "function"
    },
    {
      "constant": true,
      "inputs": [
        {
          "name": "",
          "type": "address"
        }
      ],
      "name": "tradingHistory",
      "outputs": [
        {
          "name": "times",
          "type": "uint256"
        },
        {
          "name": "sum",
          "type": "uint256"
        },
        {
          "name": "statusIndex",
          "type": "uint256"
        }
      ],
      "payable": false,
      "stateMutability": "view",
      "type": "function"
    },
    {
      "constant": false,
      "inputs": [
        {
          "name": "_index",
          "type": "uint256"
        },
        {
          "name": "_name",
          "type": "string"
        },
        {
          "name": "_times",
          "type": "uint256"
        },
        {
          "name": "_sum",
          "type": "uint256"
        },
        {
          "name": "_rate",
          "type": "int8"
        }
      ],
      "name": "editStatus",
      "outputs": [],
      "payable": false,
      "stateMutability": "nonpayable",
      "type": "function"
    },
    {
      "constant": false,
      "inputs": [
        {
          "name": "_new",
          "type": "address"
        }
      ],
      "name": "transferOwnership",
      "outputs": [],
      "payable": false,
      "stateMutability": "nonpayable",
      "type": "function"
    },
    {
      "constant": false,
      "inputs": [
        {
          "name": "_name",
          "type": "string"
        },
        {
          "name": "_times",
          "type": "uint256"
        },
        {
          "name": "_sum",
          "type": "uint256"
        },
        {
          "name": "_rate",
          "type": "int8"
        }
      ],
      "name": "pushStatus",
      "outputs": [],
      "payable": false,
      "stateMutability": "nonpayable",
      "type": "function"
    },
    {
      "anonymous": false,
      "inputs": [
        {
          "indexed": false,
          "name": "oldaddr",
          "type": "address"
        },
        {
          "indexed": false,
          "name": "newaddr",
          "type": "address"
        }
      ],
      "name": "TransferOwnership",
      "type": "event"
    }
  ],
  "bytecode": "0x6060604052336000806101000a81548173ffffffffffffffffffffffffffffffffffffffff021916908373ffffffffffffffffffffffffffffffffffffffff160217905550610eb7806100536000396000f3006060604052600436106100a4576000357c0100000000000000000000000000000000000000000000000000000000900463ffffffff16806311df9995146100a9578063390c5874146100fe57806342d21ef714610151578063777aff7d1461022557806382e46b75146102675780638da5cb5b146102a057806394c3ab56146102f5578063dca9fd5b14610350578063f2fde38b146103d4578063f7ac56111461040d575b600080fd5b34156100b457600080fd5b6100bc610488565b604051808273ffffffffffffffffffffffffffffffffffffffff1673ffffffffffffffffffffffffffffffffffffffff16815260200191505060405180910390f35b341561010957600080fd5b610135600480803573ffffffffffffffffffffffffffffffffffffffff169060200190919050506104ae565b604051808260000b60000b815260200191505060405180910390f35b341561015c57600080fd5b6101726004808035906020019091905050610527565b60405180806020018581526020018481526020018360000b60000b81526020018281038252868181546001816001161561010002031660029004815260200191508054600181600116156101000203166002900480156102135780601f106101e857610100808354040283529160200191610213565b820191906000526020600020905b8154815290600101906020018083116101f657829003601f168201915b50509550505050505060405180910390f35b341561023057600080fd5b610265600480803573ffffffffffffffffffffffffffffffffffffffff16906020019091908035906020019091905050610572565b005b341561027257600080fd5b61029e600480803573ffffffffffffffffffffffffffffffffffffffff169060200190919050506107fc565b005b34156102ab57600080fd5b6102b361089b565b604051808273ffffffffffffffffffffffffffffffffffffffff1673ffffffffffffffffffffffffffffffffffffffff16815260200191505060405180910390f35b341561030057600080fd5b61032c600480803573ffffffffffffffffffffffffffffffffffffffff169060200190919050506108c0565b60405180848152602001838152602001828152602001935050505060405180910390f35b341561035b57600080fd5b6103d2600480803590602001909190803590602001908201803590602001908080601f0160208091040260200160405190810160405280939291908181526020018383808284378201915050505050509190803590602001909190803590602001909190803560000b9060200190919050506108ea565b005b34156103df57600080fd5b61040b600480803573ffffffffffffffffffffffffffffffffffffffff16906020019091905050610a15565b005b341561041857600080fd5b610486600480803590602001908201803590602001908080601f0160208091040260200160405190810160405280939291908181526020018383808284378201915050505050509190803590602001909190803590602001909190803560000b906020019091905050610b92565b005b600160009054906101000a900473ffffffffffffffffffffffffffffffffffffffff1681565b60006002600360008473ffffffffffffffffffffffffffffffffffffffff1673ffffffffffffffffffffffffffffffffffffffff1681526020019081526020016000206002015481548110151561050157fe5b906000526020600020906004020160030160009054906101000a900460000b9050919050565b60028181548110151561053657fe5b906000526020600020906004020160009150905080600001908060010154908060020154908060030160009054906101000a900460000b905084565b6000806000600160009054906101000a900473ffffffffffffffffffffffffffffffffffffffff1673ffffffffffffffffffffffffffffffffffffffff163373ffffffffffffffffffffffffffffffffffffffff161415156105d357600080fd5b6001600360008773ffffffffffffffffffffffffffffffffffffffff1673ffffffffffffffffffffffffffffffffffffffff1681526020019081526020016000206000016000828254019250508190555083600360008773ffffffffffffffffffffffffffffffffffffffff1673ffffffffffffffffffffffffffffffffffffffff16815260200190815260200160002060010160008282540192505081905550600090505b6002805490508110156107ae5760028181548110151561069557fe5b906000526020600020906004020160010154600360008773ffffffffffffffffffffffffffffffffffffffff1673ffffffffffffffffffffffffffffffffffffffff168152602001908152602001600020600001541015801561075a575060028181548110151561070257fe5b906000526020600020906004020160020154600360008773ffffffffffffffffffffffffffffffffffffffff1673ffffffffffffffffffffffffffffffffffffffff1681526020019081526020016000206001015410155b8015610798575060028181548110151561077057fe5b906000526020600020906004020160030160009054906101000a900460000b60000b8260000b125b156107a1578092505b8080600101915050610679565b82600360008773ffffffffffffffffffffffffffffffffffffffff1673ffffffffffffffffffffffffffffffffffffffff168152602001908152602001600020600201819055505050505050565b6000809054906101000a900473ffffffffffffffffffffffffffffffffffffffff1673ffffffffffffffffffffffffffffffffffffffff163373ffffffffffffffffffffffffffffffffffffffff1614151561085757600080fd5b80600160006101000a81548173ffffffffffffffffffffffffffffffffffffffff021916908373ffffffffffffffffffffffffffffffffffffffff16021790555050565b6000809054906101000a900473ffffffffffffffffffffffffffffffffffffffff1681565b60036020528060005260406000206000915090508060000154908060010154908060020154905083565b6000809054906101000a900473ffffffffffffffffffffffffffffffffffffffff1673ffffffffffffffffffffffffffffffffffffffff163373ffffffffffffffffffffffffffffffffffffffff1614151561094557600080fd5b600280549050851015610a0e578360028681548110151561096257fe5b90600052602060002090600402016000019080519060200190610986929190610c99565b508260028681548110151561099757fe5b906000526020600020906004020160010181905550816002868154811015156109bc57fe5b906000526020600020906004020160020181905550806002868154811015156109e157fe5b906000526020600020906004020160030160006101000a81548160ff021916908360000b60ff1602179055505b5050505050565b60008060009054906101000a900473ffffffffffffffffffffffffffffffffffffffff1673ffffffffffffffffffffffffffffffffffffffff163373ffffffffffffffffffffffffffffffffffffffff16141515610a7257600080fd5b6000809054906101000a900473ffffffffffffffffffffffffffffffffffffffff169050816000806101000a81548173ffffffffffffffffffffffffffffffffffffffff021916908373ffffffffffffffffffffffffffffffffffffffff1602179055507f5c486528ec3e3f0ea91181cff8116f02bfa350e03b8b6f12e00765adbb5af85c816000809054906101000a900473ffffffffffffffffffffffffffffffffffffffff16604051808373ffffffffffffffffffffffffffffffffffffffff1673ffffffffffffffffffffffffffffffffffffffff1681526020018273ffffffffffffffffffffffffffffffffffffffff1673ffffffffffffffffffffffffffffffffffffffff1681526020019250505060405180910390a15050565b6000809054906101000a900473ffffffffffffffffffffffffffffffffffffffff1673ffffffffffffffffffffffffffffffffffffffff163373ffffffffffffffffffffffffffffffffffffffff16141515610bed57600080fd5b60028054806001018281610c019190610d19565b916000526020600020906004020160006080604051908101604052808881526020018781526020018681526020018560000b81525090919091506000820151816000019080519060200190610c57929190610d4b565b50602082015181600101556040820151816002015560608201518160030160006101000a81548160ff021916908360000b60ff16021790555050505050505050565b828054600181600116156101000203166002900490600052602060002090601f016020900481019282601f10610cda57805160ff1916838001178555610d08565b82800160010185558215610d08579182015b82811115610d07578251825591602001919060010190610cec565b5b509050610d159190610dcb565b5090565b815481835581811511610d4657600402816004028360005260206000209182019101610d459190610df0565b5b505050565b828054600181600116156101000203166002900490600052602060002090601f016020900481019282601f10610d8c57805160ff1916838001178555610dba565b82800160010185558215610dba579182015b82811115610db9578251825591602001919060010190610d9e565b5b509050610dc79190610dcb565b5090565b610ded91905b80821115610de9576000816000905550600101610dd1565b5090565b90565b610e4091905b80821115610e3c5760008082016000610e0f9190610e43565b600182016000905560028201600090556003820160006101000a81549060ff021916905550600401610df6565b5090565b90565b50805460018160011615610100020316600290046000825580601f10610e695750610e88565b601f016020900490600052602060002090810190610e879190610dcb565b5b505600a165627a7a7230582088ceb2858431acd3a0dea24287f56e23c72d10e88bf75dc87477dbfc7cb7deb60029",
  "source": "pragma solidity ^0.4.8;\n\ncontract Owned {\n  address public owner;\n\n  event TransferOwnership(address oldaddr, address newaddr);\n\n  modifier onlyOwner() {\n    require(msg.sender == owner);\n    _;\n  }\n\n  function Owned() public {\n    owner = msg.sender;\n  }\n\n  function transferOwnership(address _new) public onlyOwner {\n    address oldaddr = owner;\n    owner = _new;\n    TransferOwnership(oldaddr, owner);\n  }\n}\n\ncontract Members is Owned {\n  address public coin;\n  MemberStatus[] public status;\n  mapping (address => History) public tradingHistory;\n\n  struct MemberStatus {\n    string name;\n    uint256 times;\n    uint256 sum;\n    int8 rate;\n  }\n\n  struct History {\n    uint256 times;\n    uint256 sum;\n    uint256 statusIndex;\n  }\n\n  modifier onlyCoin() {\n    require(msg.sender == coin);\n    _;\n  }\n\n  function setCoin(address _addr) public onlyOwner {\n    coin = _addr;\n  }\n\n  function pushStatus(string _name, uint256 _times, uint256 _sum, int8 _rate) public onlyOwner {\n    status.push(MemberStatus({\n      name: _name,\n      times: _times,\n      sum: _sum,\n      rate: _rate\n    }));\n  }\n\n  function editStatus(uint256 _index, string _name, uint256 _times, uint256 _sum, int8 _rate) public onlyOwner {\n    if (_index < status.length) {\n      status[_index].name = _name;\n      status[_index].times = _times;\n      status[_index].sum = _sum;\n      status[_index].rate = _rate;\n    }\n  }\n\n  function updateHistory(address _member, uint256 _value) public onlyCoin {\n    tradingHistory[_member].times += 1;\n    tradingHistory[_member].sum += _value;\n\n    uint256 index;\n    int8 tmprate;\n\n    for (uint i = 0; i < status.length; i++) {\n      if (tradingHistory[_member].times >= status[i].times &&\n         tradingHistory[_member].sum >= status[i].sum &&\n         tmprate < status[i].rate) {\n        index = i;\n      }\n    }\n    tradingHistory[_member].statusIndex = index;\n  }\n\n  function getCashbackRate(address _member) public constant returns (int8 rate) {\n    rate = status[tradingHistory[_member].statusIndex].rate;\n  }\n}\n\ncontract OreOreCoin is Owned {\n  string public name;\n  string public symbol;\n  uint8 public decimals;\n  uint256 public totalSupply;\n  mapping (address => uint256) public balanceOf;\n  mapping (address => int8) public blackList;\n  mapping (address => Members) public members;\n  address public owner;\n\n  modifier onlyOwner() {\n    require(msg.sender == owner);\n    _;\n  }\n\n  event Transfer(address indexed from, address indexed to, uint256 value);\n  event Blacklisted(address indexed target);\n  event DeleteFromBlacklist(address indexed target);\n  event RejectedPaymentToBlacklistedAddr(address indexed from, address indexed to, uint256 value);\n  event RejectedPaymentFromBlacklistedAddr(address indexed from, address indexed to, uint256 value);\n  event Cashback(address indexed from, address indexed to, uint256 value);\n\n  function OreOreCoin(uint256 _supply, string _name, string _symbol, uint8 _decimals) public {\n    balanceOf[msg.sender] = _supply;\n    name = _name;\n    symbol = _symbol;\n    decimals = _decimals;\n    totalSupply = _supply;\n    owner = msg.sender;\n  }\n\n  function blacklisting(address _addr) public onlyOwner() {\n    blackList[_addr] = 1;\n    Blacklisted(_addr);\n  }\n\n  function deleteFromBlacklist(address _addr) public onlyOwner() {\n    blackList[_addr] = -1;\n    DeleteFromBlacklist(_addr);\n  }\n\n  function setMembers(Members _members) public {\n    members[msg.sender] = Members(_members);\n  }\n\n  function transfer(address _to, uint256 _value) public {\n    require(balanceOf[msg.sender] >= _value);\n    require(balanceOf[_to] + _value >= balanceOf[_to]);\n\n    if (blackList[msg.sender] > 0) {\n      RejectedPaymentFromBlacklistedAddr(msg.sender, _to, _value);\n    } else if (blackList[_to] > 0) {\n      RejectedPaymentToBlacklistedAddr(msg.sender, _to, _value);\n    } else {\n      uint256 cashback = 0;\n      if (members[_to] > address(0))\n        cashback = _value / 100 * uint256(members[_to].getCashbackRate(msg.sender));\n        members[_to].updateHistory(msg.sender, _value);\n\n      balanceOf[msg.sender] -= (_value - cashback);\n      balanceOf[_to] += (_value - cashback);\n\n      Transfer(msg.sender, _to, _value);\n      Cashback(_to, msg.sender, cashback);\n    }\n  }\n}\n",
  "sourcePath": "/Users/yuka.sato/Workspace/repositories/oreorecoin/contracts/OreOreCoin.sol",
  "compiler": {
    "name": "solc",
    "version": "0.4.18+commit.9cf6e910.Emscripten.clang"
  },
  "schemaVersion": "1.0.1",
  "updatedAt": "2018-02-25T13:55:42.740Z"
}