{
  "contractName": "OreOreCoin",
  "abi": [
    {
      "constant": true,
      "inputs": [],
      "name": "name",
      "outputs": [
        {
          "name": "",
          "type": "string"
        }
      ],
      "payable": false,
      "stateMutability": "view",
      "type": "function"
    },
    {
      "constant": true,
      "inputs": [],
      "name": "totalSupply",
      "outputs": [
        {
          "name": "",
          "type": "uint256"
        }
      ],
      "payable": false,
      "stateMutability": "view",
      "type": "function"
    },
    {
      "constant": true,
      "inputs": [],
      "name": "decimals",
      "outputs": [
        {
          "name": "",
          "type": "uint8"
        }
      ],
      "payable": false,
      "stateMutability": "view",
      "type": "function"
    },
    {
      "constant": false,
      "inputs": [
        {
          "name": "_rate",
          "type": "int8"
        }
      ],
      "name": "setCashbackRate",
      "outputs": [],
      "payable": false,
      "stateMutability": "nonpayable",
      "type": "function"
    },
    {
      "constant": true,
      "inputs": [
        {
          "name": "",
          "type": "address"
        }
      ],
      "name": "blackList",
      "outputs": [
        {
          "name": "",
          "type": "int8"
        }
      ],
      "payable": false,
      "stateMutability": "view",
      "type": "function"
    },
    {
      "constant": true,
      "inputs": [
        {
          "name": "",
          "type": "address"
        }
      ],
      "name": "balanceOf",
      "outputs": [
        {
          "name": "",
          "type": "uint256"
        }
      ],
      "payable": false,
      "stateMutability": "view",
      "type": "function"
    },
    {
      "constant": false,
      "inputs": [
        {
          "name": "_addr",
          "type": "address"
        }
      ],
      "name": "blacklisting",
      "outputs": [],
      "payable": false,
      "stateMutability": "nonpayable",
      "type": "function"
    },
    {
      "constant": true,
      "inputs": [],
      "name": "owner",
      "outputs": [
        {
          "name": "",
          "type": "address"
        }
      ],
      "payable": false,
      "stateMutability": "view",
      "type": "function"
    },
    {
      "constant": false,
      "inputs": [
        {
          "name": "_addr",
          "type": "address"
        }
      ],
      "name": "deleteFromBlacklist",
      "outputs": [],
      "payable": false,
      "stateMutability": "nonpayable",
      "type": "function"
    },
    {
      "constant": true,
      "inputs": [
        {
          "name": "",
          "type": "address"
        }
      ],
      "name": "cashbackRate",
      "outputs": [
        {
          "name": "",
          "type": "int8"
        }
      ],
      "payable": false,
      "stateMutability": "view",
      "type": "function"
    },
    {
      "constant": true,
      "inputs": [],
      "name": "symbol",
      "outputs": [
        {
          "name": "",
          "type": "string"
        }
      ],
      "payable": false,
      "stateMutability": "view",
      "type": "function"
    },
    {
      "constant": false,
      "inputs": [
        {
          "name": "_to",
          "type": "address"
        },
        {
          "name": "_value",
          "type": "uint256"
        }
      ],
      "name": "transfer",
      "outputs": [],
      "payable": false,
      "stateMutability": "nonpayable",
      "type": "function"
    },
    {
      "inputs": [
        {
          "name": "_supply",
          "type": "uint256"
        },
        {
          "name": "_name",
          "type": "string"
        },
        {
          "name": "_symbol",
          "type": "string"
        },
        {
          "name": "_decimals",
          "type": "uint8"
        }
      ],
      "payable": false,
      "stateMutability": "nonpayable",
      "type": "constructor"
    },
    {
      "anonymous": false,
      "inputs": [
        {
          "indexed": true,
          "name": "from",
          "type": "address"
        },
        {
          "indexed": true,
          "name": "to",
          "type": "address"
        },
        {
          "indexed": false,
          "name": "value",
          "type": "uint256"
        }
      ],
      "name": "Transfer",
      "type": "event"
    },
    {
      "anonymous": false,
      "inputs": [
        {
          "indexed": true,
          "name": "target",
          "type": "address"
        }
      ],
      "name": "Blacklisted",
      "type": "event"
    },
    {
      "anonymous": false,
      "inputs": [
        {
          "indexed": true,
          "name": "target",
          "type": "address"
        }
      ],
      "name": "DeleteFromBlacklist",
      "type": "event"
    },
    {
      "anonymous": false,
      "inputs": [
        {
          "indexed": true,
          "name": "from",
          "type": "address"
        },
        {
          "indexed": true,
          "name": "to",
          "type": "address"
        },
        {
          "indexed": false,
          "name": "value",
          "type": "uint256"
        }
      ],
      "name": "RejectedPaymentToBlacklistedAddr",
      "type": "event"
    },
    {
      "anonymous": false,
      "inputs": [
        {
          "indexed": true,
          "name": "from",
          "type": "address"
        },
        {
          "indexed": true,
          "name": "to",
          "type": "address"
        },
        {
          "indexed": false,
          "name": "value",
          "type": "uint256"
        }
      ],
      "name": "RejectedPaymentFromBlacklistedAddr",
      "type": "event"
    },
    {
      "anonymous": false,
      "inputs": [
        {
          "indexed": true,
          "name": "addr",
          "type": "address"
        },
        {
          "indexed": false,
          "name": "rate",
          "type": "int8"
        }
      ],
      "name": "SetCashback",
      "type": "event"
    },
    {
      "anonymous": false,
      "inputs": [
        {
          "indexed": true,
          "name": "from",
          "type": "address"
        },
        {
          "indexed": true,
          "name": "to",
          "type": "address"
        },
        {
          "indexed": false,
          "name": "value",
          "type": "uint256"
        }
      ],
      "name": "Cashback",
      "type": "event"
    }
  ],
  "bytecode": "0x6060604052341561000f57600080fd5b604051610fe2380380610fe28339810160405280805190602001909190805182019190602001805182019190602001805190602001909190505083600460003373ffffffffffffffffffffffffffffffffffffffff1673ffffffffffffffffffffffffffffffffffffffff1681526020019081526020016000208190555082600090805190602001906100a3929190610127565b5081600190805190602001906100ba929190610127565b5080600260006101000a81548160ff021916908360ff1602179055508360038190555033600760006101000a81548173ffffffffffffffffffffffffffffffffffffffff021916908373ffffffffffffffffffffffffffffffffffffffff160217905550505050506101cc565b828054600181600116156101000203166002900490600052602060002090601f016020900481019282601f1061016857805160ff1916838001178555610196565b82800160010185558215610196579182015b8281111561019557825182559160200191906001019061017a565b5b5090506101a391906101a7565b5090565b6101c991905b808211156101c55760008160009055506001016101ad565b5090565b90565b610e07806101db6000396000f3006060604052600436106100ba576000357c0100000000000000000000000000000000000000000000000000000000900463ffffffff16806306fdde03146100bf57806318160ddd1461014d578063313ce5671461017657806338c38519146101a55780634838d165146101cb57806370a082311461021e5780638a294c601461026b5780638da5cb5b146102a45780638de6b343146102f95780638f81cc1d1461033257806395d89b4114610385578063a9059cbb14610413575b600080fd5b34156100ca57600080fd5b6100d2610455565b6040518080602001828103825283818151815260200191508051906020019080838360005b838110156101125780820151818401526020810190506100f7565b50505050905090810190601f16801561013f5780820380516001836020036101000a031916815260200191505b509250505060405180910390f35b341561015857600080fd5b6101606104f3565b6040518082815260200191505060405180910390f35b341561018157600080fd5b6101896104f9565b604051808260ff1660ff16815260200191505060405180910390f35b34156101b057600080fd5b6101c9600480803560000b90602001909190505061050c565b005b34156101d657600080fd5b610202600480803573ffffffffffffffffffffffffffffffffffffffff16906020019091905050610615565b604051808260000b60000b815260200191505060405180910390f35b341561022957600080fd5b610255600480803573ffffffffffffffffffffffffffffffffffffffff16906020019091905050610635565b6040518082815260200191505060405180910390f35b341561027657600080fd5b6102a2600480803573ffffffffffffffffffffffffffffffffffffffff1690602001909190505061064d565b005b34156102af57600080fd5b6102b761074b565b604051808273ffffffffffffffffffffffffffffffffffffffff1673ffffffffffffffffffffffffffffffffffffffff16815260200191505060405180910390f35b341561030457600080fd5b610330600480803573ffffffffffffffffffffffffffffffffffffffff16906020019091905050610771565b005b341561033d57600080fd5b610369600480803573ffffffffffffffffffffffffffffffffffffffff1690602001909190505061088e565b604051808260000b60000b815260200191505060405180910390f35b341561039057600080fd5b6103986108ae565b6040518080602001828103825283818151815260200191508051906020019080838360005b838110156103d85780820151818401526020810190506103bd565b50505050905090810190601f1680156104055780820380516001836020036101000a031916815260200191505b509250505060405180910390f35b341561041e57600080fd5b610453600480803573ffffffffffffffffffffffffffffffffffffffff1690602001909190803590602001909190505061094c565b005b60008054600181600116156101000203166002900480601f0160208091040260200160405190810160405280929190818152602001828054600181600116156101000203166002900480156104eb5780601f106104c0576101008083540402835291602001916104eb565b820191906000526020600020905b8154815290600101906020018083116104ce57829003601f168201915b505050505081565b60035481565b600260009054906101000a900460ff1681565b60018160000b1215610540577fffffffffffffffffffffffffffffffffffffffffffffffffffffffffffffffff9050610552565b60648160000b131561055157606490505b5b80600660003373ffffffffffffffffffffffffffffffffffffffff1673ffffffffffffffffffffffffffffffffffffffff16815260200190815260200160002060006101000a81548160ff021916908360000b60ff16021790555060018160000b12156105be57600090505b3373ffffffffffffffffffffffffffffffffffffffff167f565a2b9a970027ce579c7554dde15de6357eada7ec126bf124839dd9c3b20d7882604051808260000b60000b815260200191505060405180910390a250565b60056020528060005260406000206000915054906101000a900460000b81565b60046020528060005260406000206000915090505481565b600760009054906101000a900473ffffffffffffffffffffffffffffffffffffffff1673ffffffffffffffffffffffffffffffffffffffff163373ffffffffffffffffffffffffffffffffffffffff161415156106a957600080fd5b6001600560008373ffffffffffffffffffffffffffffffffffffffff1673ffffffffffffffffffffffffffffffffffffffff16815260200190815260200160002060006101000a81548160ff021916908360000b60ff1602179055508073ffffffffffffffffffffffffffffffffffffffff167fffa4e6181777692565cf28528fc88fd1516ea86b56da075235fa575af6a4b85560405160405180910390a250565b600760009054906101000a900473ffffffffffffffffffffffffffffffffffffffff1681565b600760009054906101000a900473ffffffffffffffffffffffffffffffffffffffff1673ffffffffffffffffffffffffffffffffffffffff163373ffffffffffffffffffffffffffffffffffffffff161415156107cd57600080fd5b7fffffffffffffffffffffffffffffffffffffffffffffffffffffffffffffffff600560008373ffffffffffffffffffffffffffffffffffffffff1673ffffffffffffffffffffffffffffffffffffffff16815260200190815260200160002060006101000a81548160ff021916908360000b60ff1602179055508073ffffffffffffffffffffffffffffffffffffffff167f2e5392b52e98bf05bdf3784aaec667371398a6ea4fb965a2894852471999bca960405160405180910390a250565b60066020528060005260406000206000915054906101000a900460000b81565b60018054600181600116156101000203166002900480601f0160208091040260200160405190810160405280929190818152602001828054600181600116156101000203166002900480156109445780601f1061091957610100808354040283529160200191610944565b820191906000526020600020905b81548152906001019060200180831161092757829003601f168201915b505050505081565b600081600460003373ffffffffffffffffffffffffffffffffffffffff1673ffffffffffffffffffffffffffffffffffffffff168152602001908152602001600020541015151561099c57600080fd5b600460008473ffffffffffffffffffffffffffffffffffffffff1673ffffffffffffffffffffffffffffffffffffffff1681526020019081526020016000205482600460008673ffffffffffffffffffffffffffffffffffffffff1673ffffffffffffffffffffffffffffffffffffffff168152602001908152602001600020540110151515610a2b57600080fd5b6000600560003373ffffffffffffffffffffffffffffffffffffffff1673ffffffffffffffffffffffffffffffffffffffff16815260200190815260200160002060009054906101000a900460000b60000b1315610aed578273ffffffffffffffffffffffffffffffffffffffff163373ffffffffffffffffffffffffffffffffffffffff167f2a04c84c100a93363ee2e1ab7076505a06b5dd417cccc0d6080ec8285e84f79e846040518082815260200191505060405180910390a3610dd6565b6000600560008573ffffffffffffffffffffffffffffffffffffffff1673ffffffffffffffffffffffffffffffffffffffff16815260200190815260200160002060009054906101000a900460000b60000b1315610baf578273ffffffffffffffffffffffffffffffffffffffff163373ffffffffffffffffffffffffffffffffffffffff167fee75d149bb5e330e03f98b125aaa1efcd5864e4e2d5946f23dc6dd30630d5616846040518082815260200191505060405180910390a3610dd5565b600090506000600660008573ffffffffffffffffffffffffffffffffffffffff1673ffffffffffffffffffffffffffffffffffffffff16815260200190815260200160002060009054906101000a900460000b60000b1315610c6c57600660008473ffffffffffffffffffffffffffffffffffffffff1673ffffffffffffffffffffffffffffffffffffffff16815260200190815260200160002060009054906101000a900460000b60000b606483811515610c6757fe5b040290505b808203600460003373ffffffffffffffffffffffffffffffffffffffff1673ffffffffffffffffffffffffffffffffffffffff16815260200190815260200160002060008282540392505081905550808203600460008573ffffffffffffffffffffffffffffffffffffffff1673ffffffffffffffffffffffffffffffffffffffff168152602001908152602001600020600082825401925050819055508273ffffffffffffffffffffffffffffffffffffffff163373ffffffffffffffffffffffffffffffffffffffff167fddf252ad1be2c89b69c2b068fc378daa952ba7f163c4a11628f55a4df523b3ef846040518082815260200191505060405180910390a33373ffffffffffffffffffffffffffffffffffffffff168373ffffffffffffffffffffffffffffffffffffffff167f82b105a9603353de51dbdf07d939d19d60f298a181b405653c095bfb286be4c2836040518082815260200191505060405180910390a35b5b5050505600a165627a7a72305820769d1b47198273368a78374f15d518d1b35046165e4614d65cd0d586fb3212260029",
  "source": "pragma solidity ^0.4.8;\n\ncontract OreOreCoin {\n  string public name;\n  string public symbol;\n  uint8 public decimals;\n  uint256 public totalSupply;\n  mapping (address => uint256) public balanceOf;\n  mapping (address => int8) public blackList;\n  mapping (address => int8) public cashbackRate;\n  address public owner;\n\n  modifier onlyOwner() {\n    require(msg.sender == owner);\n    _;\n  }\n\n  event Transfer(address indexed from, address indexed to, uint256 value);\n  event Blacklisted(address indexed target);\n  event DeleteFromBlacklist(address indexed target);\n  event RejectedPaymentToBlacklistedAddr(address indexed from, address indexed to, uint256 value);\n  event RejectedPaymentFromBlacklistedAddr(address indexed from, address indexed to, uint256 value);\n  event SetCashback(address indexed addr, int8 rate);\n  event Cashback(address indexed from, address indexed to, uint256 value);\n\n  function OreOreCoin(uint256 _supply, string _name, string _symbol, uint8 _decimals) public {\n    balanceOf[msg.sender] = _supply;\n    name = _name;\n    symbol = _symbol;\n    decimals = _decimals;\n    totalSupply = _supply;\n    owner = msg.sender;\n  }\n\n  function blacklisting(address _addr) public onlyOwner() {\n    blackList[_addr] = 1;\n    Blacklisted(_addr);\n  }\n\n  function deleteFromBlacklist(address _addr) public onlyOwner() {\n    blackList[_addr] = -1;\n    DeleteFromBlacklist(_addr);\n  }\n\n  function setCashbackRate(int8 _rate) public {\n    if (_rate < 1) {\n      _rate = -1;\n    } else if (_rate > 100) {\n      _rate = 100;\n    }\n    cashbackRate[msg.sender] = _rate;\n    if (_rate < 1) {\n      _rate = 0;\n    }\n    SetCashback(msg.sender, _rate);\n  }\n\n  function transfer(address _to, uint256 _value) public {\n    require(balanceOf[msg.sender] >= _value);\n    require(balanceOf[_to] + _value >= balanceOf[_to]);\n\n    if (blackList[msg.sender] > 0) {\n      RejectedPaymentFromBlacklistedAddr(msg.sender, _to, _value);\n    } else if (blackList[_to] > 0) {\n      RejectedPaymentToBlacklistedAddr(msg.sender, _to, _value);\n    } else {\n      uint256 cashback = 0;\n      if (cashbackRate[_to] > 0) cashback = _value / 100 * uint256(cashbackRate[_to]);\n\n      balanceOf[msg.sender] -= (_value - cashback);\n      balanceOf[_to] += (_value - cashback);\n\n      Transfer(msg.sender, _to, _value);\n      Cashback(_to, msg.sender, cashback);\n    }\n  }\n}\n",
  "sourcePath": "/Users/yuka.sato/Workspace/repositories/oreorecoin/contracts/OreOreCoin.sol",
  "compiler": {
    "name": "solc",
    "version": "0.4.18+commit.9cf6e910.Emscripten.clang"
  },
  "schemaVersion": "1.0.1",
  "updatedAt": "2018-02-24T06:59:24.821Z"
}