{
  "contractName": "OreOreCoin",
  "abi": [
    {
      "constant": true,
      "inputs": [],
      "name": "name",
      "outputs": [
        {
          "name": "",
          "type": "string"
        }
      ],
      "payable": false,
      "stateMutability": "view",
      "type": "function"
    },
    {
      "constant": true,
      "inputs": [],
      "name": "totalSupply",
      "outputs": [
        {
          "name": "",
          "type": "uint256"
        }
      ],
      "payable": false,
      "stateMutability": "view",
      "type": "function"
    },
    {
      "constant": true,
      "inputs": [],
      "name": "decimals",
      "outputs": [
        {
          "name": "",
          "type": "uint8"
        }
      ],
      "payable": false,
      "stateMutability": "view",
      "type": "function"
    },
    {
      "constant": true,
      "inputs": [
        {
          "name": "",
          "type": "address"
        }
      ],
      "name": "blackList",
      "outputs": [
        {
          "name": "",
          "type": "int8"
        }
      ],
      "payable": false,
      "stateMutability": "view",
      "type": "function"
    },
    {
      "constant": true,
      "inputs": [
        {
          "name": "",
          "type": "address"
        }
      ],
      "name": "balanceOf",
      "outputs": [
        {
          "name": "",
          "type": "uint256"
        }
      ],
      "payable": false,
      "stateMutability": "view",
      "type": "function"
    },
    {
      "constant": false,
      "inputs": [
        {
          "name": "_addr",
          "type": "address"
        }
      ],
      "name": "blacklisting",
      "outputs": [],
      "payable": false,
      "stateMutability": "nonpayable",
      "type": "function"
    },
    {
      "constant": true,
      "inputs": [],
      "name": "owner",
      "outputs": [
        {
          "name": "",
          "type": "address"
        }
      ],
      "payable": false,
      "stateMutability": "view",
      "type": "function"
    },
    {
      "constant": false,
      "inputs": [
        {
          "name": "_addr",
          "type": "address"
        }
      ],
      "name": "deleteFromBlacklist",
      "outputs": [],
      "payable": false,
      "stateMutability": "nonpayable",
      "type": "function"
    },
    {
      "constant": true,
      "inputs": [],
      "name": "symbol",
      "outputs": [
        {
          "name": "",
          "type": "string"
        }
      ],
      "payable": false,
      "stateMutability": "view",
      "type": "function"
    },
    {
      "constant": false,
      "inputs": [
        {
          "name": "_to",
          "type": "address"
        },
        {
          "name": "_value",
          "type": "uint256"
        }
      ],
      "name": "transfer",
      "outputs": [],
      "payable": false,
      "stateMutability": "nonpayable",
      "type": "function"
    },
    {
      "inputs": [
        {
          "name": "_supply",
          "type": "uint256"
        },
        {
          "name": "_name",
          "type": "string"
        },
        {
          "name": "_symbol",
          "type": "string"
        },
        {
          "name": "_decimals",
          "type": "uint8"
        }
      ],
      "payable": false,
      "stateMutability": "nonpayable",
      "type": "constructor"
    },
    {
      "anonymous": false,
      "inputs": [
        {
          "indexed": true,
          "name": "from",
          "type": "address"
        },
        {
          "indexed": true,
          "name": "to",
          "type": "address"
        },
        {
          "indexed": false,
          "name": "value",
          "type": "uint256"
        }
      ],
      "name": "Transfer",
      "type": "event"
    },
    {
      "anonymous": false,
      "inputs": [
        {
          "indexed": true,
          "name": "target",
          "type": "address"
        }
      ],
      "name": "Blacklisted",
      "type": "event"
    },
    {
      "anonymous": false,
      "inputs": [
        {
          "indexed": true,
          "name": "target",
          "type": "address"
        }
      ],
      "name": "DeleteFromBlacklist",
      "type": "event"
    },
    {
      "anonymous": false,
      "inputs": [
        {
          "indexed": true,
          "name": "from",
          "type": "address"
        },
        {
          "indexed": true,
          "name": "to",
          "type": "address"
        },
        {
          "indexed": false,
          "name": "value",
          "type": "uint256"
        }
      ],
      "name": "RejectedPaymentToBlacklistedAddr",
      "type": "event"
    },
    {
      "anonymous": false,
      "inputs": [
        {
          "indexed": true,
          "name": "from",
          "type": "address"
        },
        {
          "indexed": true,
          "name": "to",
          "type": "address"
        },
        {
          "indexed": false,
          "name": "value",
          "type": "uint256"
        }
      ],
      "name": "RejectedPaymentFromBlacklistedAddr",
      "type": "event"
    }
  ],
  "bytecode": "0x6060604052341561000f57600080fd5b604051610d01380380610d018339810160405280805190602001909190805182019190602001805182019190602001805190602001909190505083600460003373ffffffffffffffffffffffffffffffffffffffff1673ffffffffffffffffffffffffffffffffffffffff1681526020019081526020016000208190555082600090805190602001906100a3929190610127565b5081600190805190602001906100ba929190610127565b5080600260006101000a81548160ff021916908360ff1602179055508360038190555033600660006101000a81548173ffffffffffffffffffffffffffffffffffffffff021916908373ffffffffffffffffffffffffffffffffffffffff160217905550505050506101cc565b828054600181600116156101000203166002900490600052602060002090601f016020900481019282601f1061016857805160ff1916838001178555610196565b82800160010185558215610196579182015b8281111561019557825182559160200191906001019061017a565b5b5090506101a391906101a7565b5090565b6101c991905b808211156101c55760008160009055506001016101ad565b5090565b90565b610b26806101db6000396000f3006060604052600436106100a4576000357c0100000000000000000000000000000000000000000000000000000000900463ffffffff16806306fdde03146100a957806318160ddd14610137578063313ce567146101605780634838d1651461018f57806370a08231146101e25780638a294c601461022f5780638da5cb5b146102685780638de6b343146102bd57806395d89b41146102f6578063a9059cbb14610384575b600080fd5b34156100b457600080fd5b6100bc6103c6565b6040518080602001828103825283818151815260200191508051906020019080838360005b838110156100fc5780820151818401526020810190506100e1565b50505050905090810190601f1680156101295780820380516001836020036101000a031916815260200191505b509250505060405180910390f35b341561014257600080fd5b61014a610464565b6040518082815260200191505060405180910390f35b341561016b57600080fd5b61017361046a565b604051808260ff1660ff16815260200191505060405180910390f35b341561019a57600080fd5b6101c6600480803573ffffffffffffffffffffffffffffffffffffffff1690602001909190505061047d565b604051808260000b60000b815260200191505060405180910390f35b34156101ed57600080fd5b610219600480803573ffffffffffffffffffffffffffffffffffffffff1690602001909190505061049d565b6040518082815260200191505060405180910390f35b341561023a57600080fd5b610266600480803573ffffffffffffffffffffffffffffffffffffffff169060200190919050506104b5565b005b341561027357600080fd5b61027b6105b3565b604051808273ffffffffffffffffffffffffffffffffffffffff1673ffffffffffffffffffffffffffffffffffffffff16815260200191505060405180910390f35b34156102c857600080fd5b6102f4600480803573ffffffffffffffffffffffffffffffffffffffff169060200190919050506105d9565b005b341561030157600080fd5b6103096106f6565b6040518080602001828103825283818151815260200191508051906020019080838360005b8381101561034957808201518184015260208101905061032e565b50505050905090810190601f1680156103765780820380516001836020036101000a031916815260200191505b509250505060405180910390f35b341561038f57600080fd5b6103c4600480803573ffffffffffffffffffffffffffffffffffffffff16906020019091908035906020019091905050610794565b005b60008054600181600116156101000203166002900480601f01602080910402602001604051908101604052809291908181526020018280546001816001161561010002031660029004801561045c5780601f106104315761010080835404028352916020019161045c565b820191906000526020600020905b81548152906001019060200180831161043f57829003601f168201915b505050505081565b60035481565b600260009054906101000a900460ff1681565b60056020528060005260406000206000915054906101000a900460000b81565b60046020528060005260406000206000915090505481565b600660009054906101000a900473ffffffffffffffffffffffffffffffffffffffff1673ffffffffffffffffffffffffffffffffffffffff163373ffffffffffffffffffffffffffffffffffffffff1614151561051157600080fd5b6001600560008373ffffffffffffffffffffffffffffffffffffffff1673ffffffffffffffffffffffffffffffffffffffff16815260200190815260200160002060006101000a81548160ff021916908360000b60ff1602179055508073ffffffffffffffffffffffffffffffffffffffff167fffa4e6181777692565cf28528fc88fd1516ea86b56da075235fa575af6a4b85560405160405180910390a250565b600660009054906101000a900473ffffffffffffffffffffffffffffffffffffffff1681565b600660009054906101000a900473ffffffffffffffffffffffffffffffffffffffff1673ffffffffffffffffffffffffffffffffffffffff163373ffffffffffffffffffffffffffffffffffffffff1614151561063557600080fd5b7fffffffffffffffffffffffffffffffffffffffffffffffffffffffffffffffff600560008373ffffffffffffffffffffffffffffffffffffffff1673ffffffffffffffffffffffffffffffffffffffff16815260200190815260200160002060006101000a81548160ff021916908360000b60ff1602179055508073ffffffffffffffffffffffffffffffffffffffff167f2e5392b52e98bf05bdf3784aaec667371398a6ea4fb965a2894852471999bca960405160405180910390a250565b60018054600181600116156101000203166002900480601f01602080910402602001604051908101604052809291908181526020018280546001816001161561010002031660029004801561078c5780601f106107615761010080835404028352916020019161078c565b820191906000526020600020905b81548152906001019060200180831161076f57829003601f168201915b505050505081565b80600460003373ffffffffffffffffffffffffffffffffffffffff1673ffffffffffffffffffffffffffffffffffffffff16815260200190815260200160002054101515156107e257600080fd5b600460008373ffffffffffffffffffffffffffffffffffffffff1673ffffffffffffffffffffffffffffffffffffffff1681526020019081526020016000205481600460008573ffffffffffffffffffffffffffffffffffffffff1673ffffffffffffffffffffffffffffffffffffffff16815260200190815260200160002054011015151561087157600080fd5b6000600560003373ffffffffffffffffffffffffffffffffffffffff1673ffffffffffffffffffffffffffffffffffffffff16815260200190815260200160002060009054906101000a900460000b60000b1315610933578173ffffffffffffffffffffffffffffffffffffffff163373ffffffffffffffffffffffffffffffffffffffff167f2a04c84c100a93363ee2e1ab7076505a06b5dd417cccc0d6080ec8285e84f79e836040518082815260200191505060405180910390a3610af6565b6000600560008473ffffffffffffffffffffffffffffffffffffffff1673ffffffffffffffffffffffffffffffffffffffff16815260200190815260200160002060009054906101000a900460000b60000b13156109f5578173ffffffffffffffffffffffffffffffffffffffff163373ffffffffffffffffffffffffffffffffffffffff167fee75d149bb5e330e03f98b125aaa1efcd5864e4e2d5946f23dc6dd30630d5616836040518082815260200191505060405180910390a3610af5565b80600460003373ffffffffffffffffffffffffffffffffffffffff1673ffffffffffffffffffffffffffffffffffffffff1681526020019081526020016000206000828254039250508190555080600460008473ffffffffffffffffffffffffffffffffffffffff1673ffffffffffffffffffffffffffffffffffffffff168152602001908152602001600020600082825401925050819055508173ffffffffffffffffffffffffffffffffffffffff163373ffffffffffffffffffffffffffffffffffffffff167fddf252ad1be2c89b69c2b068fc378daa952ba7f163c4a11628f55a4df523b3ef836040518082815260200191505060405180910390a35b5b50505600a165627a7a7230582002653a4532122d3648a4aee36c82e07f9ddf527998dbe96e22d46cb304726e0e0029",
  "source": "pragma solidity ^0.4.8;\n\ncontract OreOreCoin {\n  string public name;\n  string public symbol;\n  uint8 public decimals;\n  uint256 public totalSupply;\n  mapping (address => uint256) public balanceOf;\n  mapping (address => int8) public blackList;\n  address public owner;\n\n  modifier onlyOwner() {\n    require(msg.sender == owner);\n    _;\n  }\n\n  event Transfer(address indexed from, address indexed to, uint256 value);\n  event Blacklisted(address indexed target);\n  event DeleteFromBlacklist(address indexed target);\n  event RejectedPaymentToBlacklistedAddr(address indexed from, address indexed to, uint256 value);\n  event RejectedPaymentFromBlacklistedAddr(address indexed from, address indexed to, uint256 value);\n\n  function OreOreCoin(uint256 _supply, string _name, string _symbol, uint8 _decimals) public {\n    balanceOf[msg.sender] = _supply;\n    name = _name;\n    symbol = _symbol;\n    decimals = _decimals;\n    totalSupply = _supply;\n    owner = msg.sender;\n  }\n\n  function blacklisting(address _addr) public onlyOwner() {\n    blackList[_addr] = 1;\n    Blacklisted(_addr);\n  }\n\n  function deleteFromBlacklist(address _addr) public onlyOwner() {\n    blackList[_addr] = -1;\n    DeleteFromBlacklist(_addr);\n  }\n\n  function transfer(address _to, uint256 _value) public {\n    require(balanceOf[msg.sender] >= _value);\n    require(balanceOf[_to] + _value >= balanceOf[_to]);\n\n    if (blackList[msg.sender] > 0) {\n      RejectedPaymentFromBlacklistedAddr(msg.sender, _to, _value);\n    } else if (blackList[_to] > 0) {\n      RejectedPaymentToBlacklistedAddr(msg.sender, _to, _value);\n    } else {\n      balanceOf[msg.sender] -= _value;\n      balanceOf[_to] += _value;\n\n      Transfer(msg.sender, _to, _value);\n    }\n  }\n}\n",
  "sourcePath": "/Users/yuka.sato/Workspace/repositories/oreorecoin/contracts/OreOreCoin.sol",
  "compiler": {
    "name": "solc",
    "version": "0.4.18+commit.9cf6e910.Emscripten.clang"
  },
  "schemaVersion": "1.0.1",
  "updatedAt": "2018-02-24T06:45:29.590Z"
}